:020000041FFFDC
:10F00000FC01002021F0FF1F65F7FF1F67F7FF1FBE
:10F01000DFF804D000F0AAFBFC010020004700004C
:10F020000048004711F0FF1FFF49A1F80408B1F89C
:10F0300000084006FBD57047FD49FC480860704752
:10F04000FC48C168C907FCD17047FA48FA49816099
:10F05000FA4981607047F748F7494160F7494160D4
:10F06000704700B5FFF7F7FFFFF7EFFFFFF7E8FF87
:10F07000F04A106940F020001061106940F0400033
:10F080001061FFF7DDFF106920F02000106100BD66
:10F090002DE9F0478246FFF7D3FFE94BB3F8008034
:10F0A0005C889D88DE881F89B3F80AC0B3F80C908D
:10F0B000A3F60203FFF7D5FFFFF7CDFFFFF7C5FF6C
:10F0C000FFF7BEFFDB4A106940F010001061BAF193
:10F0D000000F23D008F0FF0003F500635880FFF70E
:10F0E000AFFFE0B29880FFF7ABFFE8B2D880FFF740
:10F0F000A7FFF0B21881FFF7A3FFF8B21881FFF75E
:10F100009FFF0CF0FF001881FFF79AFF09F0FF0046
:10F110001881FFF795FF0020188002E0A520A3F8D2
:10F120000008FFF78DFF106920F010001061BDE8A6
:10F13000F087C0490020C969890700D501207047C0
:10F140002DE9F047BE4B9B1E1F88B3F802C0B3F8F1
:10F150000480B3F80690C043C4B2C0F30725C0F3DF
:10F1600007464FEA106AFFF77CFFFFF774FFFFF7CF
:10F170006CFFB04A106940F010001061F8B21880BE
:10F18000FFF75EFF0CF0FF005880FFF759FF08F013
:10F19000FF009880FFF754FF09F0FF00D880A3F527
:10F1A0000063FFF74DFFFF2C03D0A3F80848FFF7DB
:10F1B00047FFFF2D03D0A3F80A58FFF741FFFF2EAA
:10F1C00003D0A3F80C68FFF73BFFBAF1FF0F03D0A1
:10F1D000A3F80EA8FFF734FF106920F010001061AB
:10F1E000A5E7914A4AF6AA20964900E00860B2F8DD
:10F1F00000389B06FAD5B2F80408C0B2704770B563
:10F200000E46441C054606D0FFF7EBFF454006F8C6
:10F21000010B641EF8D1FFF7E4FFA84204D01F20C1
:10F22000FFF702FF552070BDAA2070BD00B5034650
:10F23000FFF711FFFFF704FF7E4A022010615361C0
:10F2400042201061FFF7FCFE0020106100BD00B5F8
:10F25000FFF701FFFFF7F9FEFFF7F2FE754A1069AD
:10F2600040F004001061106940F040001061FFF7A9
:10F27000E7FE106920F00400106100BD10B50446DF
:10F280000B46FFF7DDFE6B4A106940F0010010618C
:10F290002380FFF7D5FED068400703D4180C6080A8
:10F2A000FFF7CEFED068400703D5D06840F00400D9
:10F2B000D060106920F00100106110BDA0F1006164
:10F2C000B1F5004F01D2022070475F490144B1F50A
:10F2D000185F01D2032070475C490144B1F5007FFB
:10F2E00001D2042070475A490844B0F5006F01D29A
:10F2F000052070470120704730B50025FFF719FF42
:10F30000F0B97920FFF790FEFFF76BFF044645EA5E
:10F310000065FFF766FF45EA00454440FFF761FFDF
:10F3200045EA00254440FFF75CFF05434440FFF7F2
:10F3300058FFA04204D17920FFF776FE284630BD61
:10F340001F20FFF771FE4FF0553030BD2DE9F04F13
:10F3500040A13CC9C5B001A83CC000F023FA394A1D
:10F3600045F255501060062050604AF6AA231360FB
:10F370003C484FF4801141603B4C012121660168FB
:10F380008901FCD537483949416044F20401816163
:10F3900000244FF0E026C6F8084D36483449C0F83E
:10F3A000041804213161C1007161D0F808184905C1
:10F3B000FBD5D0F808184905FBD4D0F80818490542
:10F3C000FBD505213161D0F808184905FBD4B06997
:10F3D0000021C0F50025284801800724B5FBF4F47E
:10F3E00084804FF4C06484818181818243F20C4126
:10F3F00001817920FFF718FE0C4F12484AF6AA2126
:10F400000160FFF7EEFE0446FFF7EBFE80EA040121
:10F41000FF2900D05524312C7ED041DC022C59D05C
:10F4200039DC5CB3012C2AE0003001400400FA050D
:10F430000CED00E00020024023016745AB89EFCDD1
:10F4400002F8FF1F0030004000FEFFDF000800E070
:10F45000001000E0790B2200010211213143637397
:10F460008292790000100240000042420200100027
:10F47000B4444444000001400438014021E05AD122
:10F480007920FFF7D1FD2220FFF7CEFD0020FFF706
:10F49000CBFD002028E0112C2CD0212C4DD04AE0AF
:10F4A000732C6FD008DC432C6DD0632C43D1FFF755
:10F4B00040FE012868D13EE0822C7ED0922C7DD087
:10F4C00039E0002201AB985CFFF7AEFD521C0F2A19
:10F4D000F9D392E77920FFF7A7FD0120FFF7A4FDFC
:10F4E0000420FFF7A1FD1220FFF79EFDE6E0FFF7E5
:10F4F0009BFD82E7FFF700FF8446FFF7DFFEC0B207
:10F500000128E6D0FFF76DFE0446C043C5B2FFF701
:10F5100068FEA8420FD100E037E07920FFF784FDB4
:10F52000641CD6D065460CF1010C2878FFF77CFDF1
:10F53000641EF7D161E71F20D9E7FFF7DDFE04461F
:10F54000FFF7BCFEC1B2022901D00329F3D17E49E5
:10F5500048687E4A1040486008687D4A104008604C
:10F56000086820F480200860486820F4FE004860A5
:10F570000020306100F014F96568206800F00CF993
:10F58000A8473AE7BCE074E09AE0FFF7B5FE804692
:10F59000FFF794FE00F0FF0CBCF1010F99D0FFF7CC
:10F5A00020FE0DF11409441C4946FFF728FEAA2845
:10F5B0008FD1BCF1020F18D101E0A9E0B8E0A0079B
:10F5C00002D004F0FC04241DFFF745FD250075D092
:10F5D00009EB040A08EB040BAAEB05000168ABEB8E
:10F5E0000500FFF74BFE2D1FF6D1BCF1030F10D124
:10F5F000A00702D004F0FC04241D21005ED009EB1A
:10F60000040008EB0402431A1B68551A2B60091FFB
:10F61000F9D1BCF1040F51D14E4880454ED1E007DD
:10F6200002D004F0FE04A41CFFF71BFDFFF713FD3E
:10F63000FFF70BFD484B186940F010001861FFF709
:10F64000FFFC64B109EB040208EB0405101B008801
:10F65000291BC0B20880FFF7F3FCA41EF6D118697D
:10F6600020F0100018617920FFF7DEFCC6F80C7D51
:10F6700024E0FFF75EFD01283FF411AF7920FFF78A
:10F68000D3FCFFF7AEFDFF2805D1FFF7AAFDA8B90F
:10F69000FFF7DDFD12E005AD441C2946FFF7AFFD85
:10F6A000AA287FF4FCAE4CB14FF0006C15F8010BAA
:10F6B0000CEB8020FFF7BAFD641EF7D1792016E726
:10F6C0007920FFF7B1FCFFF78CFD05AD441C2946FE
:10F6D000FFF795FDAA287FF4FCAE00223CB1012182
:10F6E00015F8013B01FA03F00243641EF8D1FFF75D
:10F6F000B2FC19483521C1601046FFF721FD11E029
:10F70000FFF717FD0128B7D07920FFF78DFC19E02E
:10F71000FFF70FFD0128AFD07920FFF785FC01200E
:10F72000FFF7B6FC7920FFF77FFCC6F80C7D64E696
:10F730007920FFF779FC0948094A002140F80419AB
:10F740009042FBD10020EBE7001002400000FFF8E0
:10F75000FFFFF6FE00F8FF1F00200240FC270020FC
:10F76000FC0100207047FFF767BC0000074C084D04
:10F7700006E0E06840F0010394E807009847103481
:10F78000AC42F6D30348FFF749FC0000A8F7FF1F7F
:10F79000A8F7FF1F4DF3FF1F80F308887047000094
:10F7A00062B6704772B67047FFFFFFFFFFFFFFFFB3
:10F7B000FFFFFFFFFFFFFFFFFFFFFFFFFFFFFFFF59
:10F7C000FFFFFFFFFFFFFFFFFFFFFFFFFFFFFFFF49
:10F7D000FFFFFFFFFFFFFFFFFFFFFFFFFFFFFFFF39
:10F7E0002000FFFFE306260537FFDA054D473832D4
:10F7F00077370543FFC0FCFF6897FF0045BA40BF5D
:10F80000A55AFFFFFFFFFFFFFFFFFFFFFFFFFFFF07
:00000001FF
